{
  "network": "BCC",
  "event_type": "address-transactions",
  "data": {
    "raw": "02000000018c6428097288938f175c3229ad617f83e0b10c2ef5ee9b2d1b63105d50512adb010000006b483045022100beca2e305620175ed813359bf4cc61cf9f37ab6ccfd2b5088a3cf5a1bd3311ea0220469a92221bbfb812c28296ef1767bcad75b5eca5dd600e97e0486b188190318a412103e66642f923ef701fecdbc73922b12e31c505a810eeb7410065788344e781e508ffffffff0280d23b8e000000001976a9145edd3a1f5d86ab00f4267e41d9a6a9f133aa5e4d88ac8571df04000000001976a914c5f4612462df383fa365123dff9b136969e1f08688ac00000000",
    "hash": "514949f17393c331ad27bdf6ba359d2c99d6dc4ae34421441f920a177600f955",
    "first_seen_at": "2018-02-17T16:12:03+0000",
    "last_seen_at": "2018-02-17T16:12:03+0000",
    "block_height": 517803,
    "block_time": "2018-02-17T16:15:38+0000",
    "block_hash": "000000000000000001087654b4812ebc1e162967895f0cfa77974fa923d01588",
    "confirmations": 6,
    "is_coinbase": false,
    "estimated_value": 2468037637,
    "total_input_value": 2468037897,
    "total_output_value": 2468037637,
    "total_fee": 260,
    "estimated_change": null,
    "estimated_change_address": null,
    "high_priority": true,
    "enough_fee": false,
    "contains_dust": false,
    "inputs": [
      {
        "index": 0,
        "output_hash": "db2a51505d10631b2d9beef52e0cb1e0837f61ad29325c178f9388720928648c",
        "output_index": 1,
        "output_confirmed": true,
        "value": 2468037897,
        "sequence": 4294967295,
        "address": "1G52jmxYVbCjJanMjjnMJ3cT1d2vZMvsKw",
        "type": "pubkeyhash",
        "multisig": null,
        "multisig_addresses": null,
        "script_signature": "483045022100beca2e305620175ed813359bf4cc61cf9f37ab6ccfd2b5088a3cf5a1bd3311ea0220469a92221bbfb812c28296ef1767bcad75b5eca5dd600e97e0486b188190318a412103e66642f923ef701fecdbc73922b12e31c505a810eeb7410065788344e781e508"
      }
    ],
    "outputs": [
      {
        "index": 0,
        "value": 2386285184,
        "address": "19ebYA4xXLHLhJVLX2Kjijr3PNWWeRh5BG",
        "type": "pubkeyhash",
        "multisig": null,
        "multisig_addresses": null,
        "script": "OP_DUP OP_HASH160 5edd3a1f5d86ab00f4267e41d9a6a9f133aa5e4d OP_EQUALVERIFY OP_CHECKSIG",
        "script_hex": "76a9145edd3a1f5d86ab00f4267e41d9a6a9f133aa5e4d88ac",
        "spent_hash": null,
        "spent_index": 0
      },
      {
        "index": 1,
        "value": 81752453,
        "address": "1K3gsaFR3eUvaPjTTFxpDpQ5mf9QB1hfH2",
        "type": "pubkeyhash",
        "multisig": null,
        "multisig_addresses": null,
        "script": "OP_DUP OP_HASH160 c5f4612462df383fa365123dff9b136969e1f086 OP_EQUALVERIFY OP_CHECKSIG",
        "script_hex": "76a914c5f4612462df383fa365123dff9b136969e1f08688ac",
        "spent_hash": null,
        "spent_index": 0
      }
    ],
    "opt_in_rbf": false,
    "unconfirmed_inputs": false,
    "lock_time_timestamp": null,
    "lock_time_block_height": null,
    "size": 226
  },
  "retry_count": 0,
  "addresses": {
    "19ebYA4xXLHLhJVLX2Kjijr3PNWWeRh5BG": 2386285184
  }
}
